:020000040000FA
:1000000000005329F520F020831287140708BD0053
:10001000FB303D05870000304B04031D3028831260
:1000200007080839031D0130BD00BE00013A031D59
:100030000B280530AF000030332183120708083940
:10004000031D0130BD00BE00013A031D0B28C8206E
:10005000831207150708BD00FD303D0587000B28FA
:1000600083128B1083128B1C322810148B10831276
:100070008B1C372810100F08BD000E08BE00AF0003
:100080003D087120831207081039031D0130BD009F
:10009000BE00013A0319AB20831207082039031D63
:1000A0000130BD00BE00013A03198E2083120708FB
:1000B0000839031D0130BD00BE00013A031D0B28A5
:1000C0000530AF0000303321831207080839031DC3
:1000D0000130BD00BE00013A031D0B28C8200B28CB
:1000E0000800B9002F08BA004D08BB00BC014E083B
:1000F0003C0203187D28BC0A77284C083906031DEA
:100100008C283B083A0603198D284D083A0203183B
:100110008B2811218C282221DC2008000530AF001B
:1001200000303321831207082039031D0130B60047
:10013000B700013A031DA02800304E04031DCE0372
:10014000831207082039031D0130B600B700013AB9
:100150000319A02808000530AF00003033218312B6
:1001600007081039031D0130B600B700013A031D1E
:10017000BD2805304E02031CCE0A83120708103931
:10018000031D0130B600B700013A0319BD2808006D
:1001900083128B1083128B1CCA2810148B108312AD
:1001A0008B1CCF2810100F08CC000E08CD008E013C
:1001B0008F010130CB000800B701B80100303802D0
:1001C000031DE428643037020318EB280021B70A26
:1001D0000319B80ADE28E830AF00033033210800E5
:1001E000831290018F018E0108001830831687005A
:1001F000831287010430831685008312850108006D
:10020000831207140530AF00003033218312070832
:10021000B600FE30360587000530AF0000303321D0
:100220000800831207140130AF000030332183121D
:100230000708B600FE30360587000130AF000030F9
:1002400033210800831207141430AF00003033212B
:1002500083120708B600FE30360587001430AF0061
:10026000003033210800B1002F08B000B201B30103
:1002700031083302031D3E29300832020318522987
:10028000B401B50101303502031D48299030340214
:1002900003184E29B40A0319B50A4229B20A0319F0
:1002A000B30A382908002330AE000230AF00803096
:1002B0000000000002220000000083120000C000C5
:1002C0002F08BF002530C1000230C2008312000099
:1002D0003F08C3004008C400FF30BF07031CC00331
:1002E000430844040319EB2904304107C300C40147
:1002F000C40D4208C4074308AE004408AF00803074
:100300000000000002220000000083120000C6006E
:100310002F08C5004108AE004208AF008030000041
:10032000000002220000000083120000C800C40088
:100330002F08C700C30002304107C300C401C40D29
:100340004208C4074308AE004408AF0080300000F4
:10035000000002220000000083120000C400CA0056
:100360002F08C300C900831200004508C9004608D1
:10037000CA00FF30C507031CC60349084A04031915
:10038000E4294708AE004808AF00803000000000B4
:10039000EF210000000083120000C900430883120F
:1003A0000313840083138312000044188317490841
:1003B00083120313800083120000C70A0319C80ABE
:1003C000C30A0319C40AB329063083120000C10707
:1003D0000318C20A66290000000002280800003A3B
:1003E0000319F629803A0319FD2900342E088400E8
:1003F00083132F188317000808002F088A002E087F
:1004000082000800003A03190A2A803A0319142AC4
:10041000AF0100342E08840083132F1883170008BF
:10042000AF00840A0008080000000000FD21AD00B4
:10043000AE0FAF03AF0A00000000FD21AC002D0895
:10044000AF002C08080002340034313402344E343A
:10045000003401340034323402344F340034013477
:06046000003400340034FA
:02400E00D23F9F
:00000001FF
