:020000040000FA
:1000000000005529831290018F018E01383083162C
:1000100087008312870104308316850083128501CF
:10002000871400304B04031D402883120708083949
:10003000031D0130BD00BE00013A031D3528053007
:10004000AF0000303521831207080839031D013045
:10005000BD00BE00013A031D3528DC2083120715C0
:100060000708BD00FD303D058700831207080839E9
:10007000031D0130BD00BE00013A031D11283528C3
:1000800083128B1083128B1C422810148B10831246
:100090008B1C472810100F08BD000E08BE00AF00D3
:1000A0003D088120831207081039031D0130BD006F
:1000B000BE00013A0319BB20831207082039031D33
:1000C0000130BD00BE00013A03199A2083120708CF
:1000D0000839031D0130BD00BE00013A031D402850
:1000E0000530AF0000303521831207080839031DA1
:1000F0000130BD00BE00013A031D4028DC2040282D
:100100000800B9002F08BA004D08BB00BC014E081A
:100110003C0203188D28BC0A87284C083906031DA9
:10012000F0203B083A02031C24213A083B02031C3E
:10013000132108000530AF00003035218312070875
:100140002039031D0130B600B700013A031DAC2869
:1001500000304E04031DCE030530AF0000303521C2
:10016000831207082039031D0130B600B700013A99
:100170000319B02808000530AF0000303521831284
:1001800007081039031D0130B600B700013A031DFE
:10019000CD2805304E02031CCE0A0530AF000030DA
:1001A0003521831207081039031D0130B600B7004E
:1001B000013A0319D128080083128B1083128B1C7B
:1001C000DE2810148B1083128B1CE32810100F08EC
:1001D000CC000E08CD008E018F010130CB0008004D
:1001E000B601B70100303702031DF828643036022B
:1001F00003180E29831207140A30AF00003035218E
:1002000083120708B800FE30380587000A30AF00B7
:1002100000303521B60A0319B70AF228E830AF00DA
:10022000033035210800831207140130AF0000307D
:10023000352183120708B600FE30360587000130ED
:10024000AF00003035210800831207141430AF00CE
:100250000030352183120708B600FE3036058700CE
:100260001430AF00003035210800B1002F08B00075
:10027000B201B30131083302031D402930083202B4
:1002800003185429B401B50101303502031D4A2970
:100290009030340203185029B40A0319B50A4429CE
:1002A000B20A0319B30A3A2908002530AE00023019
:1002B000AF00803000000000042200000000831224
:1002C0000000C0002F08BF002730C1000230C2006C
:1002D000831200003F08C3004008C400FF30BF077E
:1002E000031CC003430844040319ED2904304107EB
:1002F000C300C401C40D4208C4074308AE0044084B
:10030000AF008030000000000422000000008312D3
:100310000000C6002F08C5004108AE004208AF002B
:100320008030000000000422000000008312000062
:10033000C800C4002F08C700C30002304107C30033
:10034000C401C40D4208C4074308AE004408AF000E
:100350008030000000000422000000008312000032
:10036000C400CA002F08C300C9008312000045085A
:10037000C9004608CA00FF30C507031CC603490868
:100380004A040319E6294708AE004808AF00803048
:1003900000000000F1210000000083120000C900ED
:1003A000430883120313840083138312000044184C
:1003B0008317490883120313800083120000C70AC1
:1003C0000319C80AC30A0319C40AB52906308312DF
:1003D0000000C1070318C20A6829000000000228B3
:1003E0000800003A0319F829803A0319FF2900345C
:1003F0002E08840083132F188317000808002F0885
:100400008A002E0882000800003A03190C2A803A5C
:100410000319162AAF0100342E08840083132F1805
:1004200083170008AF00840A0008080000000000DD
:10043000FF21AD00AE0FAF03AF0A00000000FF21A7
:10044000AC002D08AF002C0808000234003433340F
:1004500002344E34003401340034343402344F3426
:0A046000003401340034003400348D
:02400E00D23F9F
:00000001FF
