:020000040000FA
:1000000000008D29831290018F018E0138308316F4
:1000100087008312870104308316850083128501CF
:10002000871400304D04031D40288312070820392F
:10003000031D0130BF00C000013A031D3528053003
:10004000AF0000306D21831207082039031D0130F5
:10005000BF00C000013A031D3528EC2083120715AC
:100060000708BF00FD303F058700831207082039CD
:10007000031D0130BF00C000013A031D11283528BF
:100080004D08013A031D112883128B1083128B1C1B
:10009000462810148B1083128B1C4B2810100F084D
:1000A000BF000E08C000AF003F08912083128E01F0
:1000B0008F0107081039031D0130BF00C000013A4D
:1000C0000319CB20831207080839031D0130BF0034
:1000D000C000013A0319AA20831207082039031D22
:1000E0000130BF00C000013A031D40280530AF00B9
:1000F00000306D21831207082039031D0130BF0035
:10010000C000013A031D4028EC2083120708203963
:10011000031D0130BF00C000013A031985284028A3
:100120000800BB002F08BC004F08BD00BE015008EE
:100130003E0203189D28BE0A97284E083B06031D61
:10014000FE203D083C02031C2E213C083D02031CFE
:100150001D2108000530AF0000306D218312070813
:100160000839031D0130B600B700013A031DBC2851
:1001700000305004031DD0030530AF0000306D2166
:10018000831207080839031D0130B600B700013A91
:100190000319C02808000530AF0000306D2183121C
:1001A00007081039031D0130B600B700013A031DDE
:1001B000DD2805305002031CD00A0530AF000030A6
:1001C0006D21831207081039031D0130B600B700F6
:1001D000013A0319E128080083128B1083128B1C4B
:1001E000EE2810148B1083128B1CF32810100F08AC
:1001F000CE000E08CF000130CD000800B801B901D3
:1002000000303902031D06296430380203181C2906
:1002100083120714F430AF0001303F218312070826
:10022000BA00FE303A058700F430AF0001303F21BC
:10023000B80A0319B90A002908008312071401300B
:10024000AF0000306D2183120708B600FE3036057E
:1002500087000130AF0000306D21080083120714C1
:10026000C830AF0000303F2183120708B800FE30CD
:1002700038058700C830AF0000303F210800B100CA
:100280002F08B000B201B30131083302031D4A291F
:100290003008320203186C29B401B501B601B70168
:1002A00000303702031D5E2900303602031D5E292F
:1002B00000303502031D5E2914303402031868290A
:1002C000B40A0319B50A0319B60A0319B70A502963
:1002D000B20A0319B30A44290800B1002F08B0007C
:1002E000B201B30131083302031D7829300832020C
:1002F00003188C29B401B5014E303502031D822943
:100300002030340203188829B40A0319B50A7C295D
:10031000B20A0319B30A722908005D30AE00023038
:10032000AF008030000000003C220000000083127B
:100330000000C2002F08C1005F30C3000230C400BB
:10034000831200004108C5004208C600FF30C10703
:10035000031CC203450846040319252A0430430739
:10036000C500C601C60D4408C6074508AE004608CC
:10037000AF008030000000003C220000000083122B
:100380000000C8002F08C7004308AE004408AF00B3
:100390008030000000003C220000000083120000BA
:1003A000CA00C6002F08C900C50002304307C500B7
:1003B000C601C60D4408C6074508AE004608AF0092
:1003C0008030000000003C2200000000831200008A
:1003D000C600CC002F08C500CB00831200004708E0
:1003E000CB004808CC00FF30C707031CC8034B08EC
:1003F0004C0403191E2A4908AE004A08AF00803099
:100400000000000029220000000083120000CB0041
:1004100045088312031384008313831200004618D7
:1004200083174B0883120313800083120000C90A4C
:100430000319CA0AC50A0319C60AED290630831230
:100440000000C3070318C40AA02900000000022806
:100450000800003A0319302A803A0319372A003479
:100460002E08840083132F188317000808002F0814
:100470008A002E0882000800003A0319442A803AB4
:1004800003194E2AAF0100342E08840083132F185D
:1004900083170008AF00840A00080800000000006D
:1004A0003722AD00AE0FAF03AF0A000000003722C5
:1004B000AC002D08AF002C080800023400346B3467
:1004C000023450340034013400346C34023451347A
:0A04D000003401340034003400341D
:02400E00D23F9F
:00000001FF
